{"abi":[{"type":"function","name":"addOwnerAddress","inputs":[{"name":"owner","type":"address","internalType":"address"}],"outputs":[],"stateMutability":"nonpayable"},{"type":"function","name":"addOwnerPublicKey","inputs":[{"name":"x","type":"bytes32","internalType":"bytes32"},{"name":"y","type":"bytes32","internalType":"bytes32"}],"outputs":[],"stateMutability":"nonpayable"},{"type":"function","name":"isOwnerAddress","inputs":[{"name":"account","type":"address","internalType":"address"}],"outputs":[{"name":"","type":"bool","internalType":"bool"}],"stateMutability":"view"},{"type":"function","name":"isOwnerBytes","inputs":[{"name":"account","type":"bytes","internalType":"bytes"}],"outputs":[{"name":"","type":"bool","internalType":"bool"}],"stateMutability":"view"},{"type":"function","name":"isOwnerPublicKey","inputs":[{"name":"x","type":"bytes32","internalType":"bytes32"},{"name":"y","type":"bytes32","internalType":"bytes32"}],"outputs":[{"name":"","type":"bool","internalType":"bool"}],"stateMutability":"view"},{"type":"function","name":"nextOwnerIndex","inputs":[],"outputs":[{"name":"","type":"uint256","internalType":"uint256"}],"stateMutability":"view"},{"type":"function","name":"ownerAtIndex","inputs":[{"name":"index","type":"uint256","internalType":"uint256"}],"outputs":[{"name":"","type":"bytes","internalType":"bytes"}],"stateMutability":"view"},{"type":"function","name":"ownerCount","inputs":[],"outputs":[{"name":"","type":"uint256","internalType":"uint256"}],"stateMutability":"view"},{"type":"function","name":"removeLastOwner","inputs":[{"name":"index","type":"uint256","internalType":"uint256"},{"name":"owner","type":"bytes","internalType":"bytes"}],"outputs":[],"stateMutability":"nonpayable"},{"type":"function","name":"removeOwnerAtIndex","inputs":[{"name":"index","type":"uint256","internalType":"uint256"},{"name":"owner","type":"bytes","internalType":"bytes"}],"outputs":[],"stateMutability":"nonpayable"},{"type":"function","name":"removedOwnersCount","inputs":[],"outputs":[{"name":"","type":"uint256","internalType":"uint256"}],"stateMutability":"view"},{"type":"event","name":"AddOwner","inputs":[{"name":"index","type":"uint256","indexed":true,"internalType":"uint256"},{"name":"owner","type":"bytes","indexed":false,"internalType":"bytes"}],"anonymous":false},{"type":"event","name":"RemoveOwner","inputs":[{"name":"index","type":"uint256","indexed":true,"internalType":"uint256"},{"name":"owner","type":"bytes","indexed":false,"internalType":"bytes"}],"anonymous":false},{"type":"error","name":"AlreadyOwner","inputs":[{"name":"owner","type":"bytes","internalType":"bytes"}]},{"type":"error","name":"InvalidEthereumAddressOwner","inputs":[{"name":"owner","type":"bytes","internalType":"bytes"}]},{"type":"error","name":"InvalidOwnerBytesLength","inputs":[{"name":"owner","type":"bytes","internalType":"bytes"}]},{"type":"error","name":"LastOwner","inputs":[]},{"type":"error","name":"NoOwnerAtIndex","inputs":[{"name":"index","type":"uint256","internalType":"uint256"}]},{"type":"error","name":"NotLastOwner","inputs":[{"name":"ownersRemaining","type":"uint256","internalType":"uint256"}]},{"type":"error","name":"Unauthorized","inputs":[]},{"type":"error","name":"WrongOwnerAtIndex","inputs":[{"name":"index","type":"uint256","internalType":"uint256"},{"name":"expectedOwner","type":"bytes","internalType":"bytes"},{"name":"actualOwner","type":"bytes","internalType":"bytes"}]}],"bytecode":{"object":"0x608060405234801561000f575f80fd5b50610bc28061001d5f395ff3fe608060405234801561000f575f80fd5b50600436106100a6575f3560e01c806336d9cf9b1161006e57806336d9cf9b1461012357806389625b571461014a5780638ea690291461015d578063a2e1a8d81461017d578063b819736714610190578063d948fd2e146101a3575f80fd5b8063066a1eb7146100aa5780630db02622146100d25780630f0f3f24146100e85780631ca5393f146100fd57806329565e3b14610110575b5f80fd5b6100bd6100b8366004610750565b6101b7565b60405190151581526020015b60405180910390f35b6100da610225565b6040519081526020016100c9565b6100fb6100f6366004610770565b610268565b005b6100bd61010b3660046107b1565b6102c5565b6100fb61011e366004610750565b6102fe565b7f97e2c6aad4ce5d562ebfaa00db6b9e0fb66ea5d8162ed5b243f51a2e03086f01546100da565b6100fb61015836600461085c565b610327565b61017061016b3660046108d1565b610367565b6040516100c99190610935565b6100bd61018b366004610770565b610425565b6100fb61019e36600461085c565b610469565b5f80516020610b6d833981519152546100da565b60408051602081018490529081018290525f907f97e2c6aad4ce5d562ebfaa00db6b9e0fb66ea5d8162ed5b243f51a2e03086f039060600160408051601f198184030181529082905261020991610947565b9081526040519081900360200190205460ff1690505b92915050565b7f97e2c6aad4ce5d562ebfaa00db6b9e0fb66ea5d8162ed5b243f51a2e03086f01545f80516020610b6d83398151915280545f9261026291610976565b91505090565b6102706104b7565b604080516001600160a01b03831660208201526102c291015b6040516020818303038152906040526102ac5f80516020610b6d83398151915290565b8054905f6102b983610989565b919050556104e9565b50565b5f5f80516020610b6d833981519152600301826040516102e59190610947565b9081526040519081900360200190205460ff1692915050565b6103066104b7565b604080516020810184905290810182905261032390606001610289565b5050565b61032f6104b7565b610337610225565b6001036103575760405163948bf89760e01b815260040160405180910390fd5b6103628383836105c9565b505050565b5f8181527f97e2c6aad4ce5d562ebfaa00db6b9e0fb66ea5d8162ed5b243f51a2e03086f02602052604090208054606091906103a2906109a1565b80601f01602080910402602001604051908101604052809291908181526020018280546103ce906109a1565b80156104195780601f106103f057610100808354040283529160200191610419565b820191905f5260205f20905b8154815290600101906020018083116103fc57829003601f168201915b50505050509050919050565b5f5f80516020610b6d833981519152604080516001600160a01b0385166020820152600392909201910160408051601f19818403018152908290526102e591610947565b6104716104b7565b5f61047a610225565b905060018111156104a657604051631047e35560e31b8152600481018290526024015b60405180910390fd5b6104b18484846105c9565b50505050565b6104c033610425565b806104ca57503330145b156104d157565b6040516282b42960e81b815260040160405180910390fd5b6104f2826102c5565b15610512578160405163468b12ad60e11b815260040161049d9190610935565b6040515f80516020610b6d833981519152906001907f97e2c6aad4ce5d562ebfaa00db6b9e0fb66ea5d8162ed5b243f51a2e03086f0390610554908690610947565b9081526040805160209281900383019020805460ff1916931515939093179092555f848152600284019091522061058b8482610a24565b50817f38109edc26e166b5579352ce56a50813177eb25208fd90d61f2f378386220220846040516105bc9190610935565b60405180910390a2505050565b5f6105d384610367565b905080515f036105f95760405163340c473d60e11b81526004810185905260240161049d565b8282604051610609929190610ae4565b604051809103902081805190602001201461063f578383838360405163781f2e3960e01b815260040161049d9493929190610b1b565b6040515f80516020610b6d833981519152907f97e2c6aad4ce5d562ebfaa00db6b9e0fb66ea5d8162ed5b243f51a2e03086f03906106809086908690610ae4565b9081526040805160209281900383019020805460ff191690555f8781526002840190925281206106af91610706565b600181018054905f6106c083610989565b9190505550847fcf95bbfe6f870f8cc40482dc3dccdafd268f0e9ce0a4f24ea1bea9be64e505ff85856040516106f7929190610b51565b60405180910390a25050505050565b508054610712906109a1565b5f825580601f10610721575050565b601f0160209004905f5260205f20908101906102c291905b8082111561074c575f8155600101610739565b5090565b5f8060408385031215610761575f80fd5b50508035926020909101359150565b5f60208284031215610780575f80fd5b81356001600160a01b0381168114610796575f80fd5b9392505050565b634e487b7160e01b5f52604160045260245ffd5b5f602082840312156107c1575f80fd5b813567ffffffffffffffff808211156107d8575f80fd5b818401915084601f8301126107eb575f80fd5b8135818111156107fd576107fd61079d565b604051601f8201601f19908116603f011681019083821181831017156108255761082561079d565b8160405282815287602084870101111561083d575f80fd5b826020860160208301375f928101602001929092525095945050505050565b5f805f6040848603121561086e575f80fd5b83359250602084013567ffffffffffffffff8082111561088c575f80fd5b818601915086601f83011261089f575f80fd5b8135818111156108ad575f80fd5b8760208285010111156108be575f80fd5b6020830194508093505050509250925092565b5f602082840312156108e1575f80fd5b5035919050565b5f5b838110156109025781810151838201526020016108ea565b50505f910152565b5f81518084526109218160208601602086016108e8565b601f01601f19169290920160200192915050565b602081525f610796602083018461090a565b5f82516109588184602087016108e8565b9190910192915050565b634e487b7160e01b5f52601160045260245ffd5b8181038181111561021f5761021f610962565b5f6001820161099a5761099a610962565b5060010190565b600181811c908216806109b557607f821691505b6020821081036109d357634e487b7160e01b5f52602260045260245ffd5b50919050565b601f82111561036257805f5260205f20601f840160051c810160208510156109fe5750805b601f840160051c820191505b81811015610a1d575f8155600101610a0a565b5050505050565b815167ffffffffffffffff811115610a3e57610a3e61079d565b610a5281610a4c84546109a1565b846109d9565b602080601f831160018114610a85575f8415610a6e5750858301515b5f19600386901b1c1916600185901b178555610adc565b5f85815260208120601f198616915b82811015610ab357888601518255948401946001909101908401610a94565b5085821015610ad057878501515f19600388901b60f8161c191681555b505060018460011b0185555b505050505050565b818382375f9101908152919050565b81835281816020850137505f828201602090810191909152601f909101601f19169091010190565b848152606060208201525f610b34606083018587610af3565b8281036040840152610b46818561090a565b979650505050505050565b602081525f610b64602083018486610af3565b94935050505056fe97e2c6aad4ce5d562ebfaa00db6b9e0fb66ea5d8162ed5b243f51a2e03086f00a26469706673582212202f3a7dddb72247c3ab6ed1e8180d22f23e8401377b812dd9086f13d06603a0e864736f6c63430008180033","linkReferences":{}},"methodIdentifiers":{"addOwnerAddress(address)":"0f0f3f24","addOwnerPublicKey(bytes32,bytes32)":"29565e3b","isOwnerAddress(address)":"a2e1a8d8","isOwnerBytes(bytes)":"1ca5393f","isOwnerPublicKey(bytes32,bytes32)":"066a1eb7","nextOwnerIndex()":"d948fd2e","ownerAtIndex(uint256)":"8ea69029","ownerCount()":"0db02622","removeLastOwner(uint256,bytes)":"b8197367","removeOwnerAtIndex(uint256,bytes)":"89625b57","removedOwnersCount()":"36d9cf9b"},"id":5}