{"abi":[{"type":"function","name":"getAll","inputs":[{"name":"user","type":"address","internalType":"address"}],"outputs":[{"name":"","type":"tuple[]","internalType":"struct DataStore.Entry[]","components":[{"name":"data","type":"bytes","internalType":"bytes"},{"name":"timestamp","type":"uint256","internalType":"uint256"}]}],"stateMutability":"view"},{"type":"function","name":"remove","inputs":[{"name":"index","type":"uint256","internalType":"uint256"}],"outputs":[],"stateMutability":"nonpayable"},{"type":"function","name":"store","inputs":[{"name":"value","type":"bytes","internalType":"bytes"}],"outputs":[],"stateMutability":"nonpayable"},{"type":"event","name":"Removed","inputs":[{"name":"user","type":"address","indexed":true,"internalType":"address"},{"name":"index","type":"uint256","indexed":false,"internalType":"uint256"}],"anonymous":false},{"type":"event","name":"Stored","inputs":[{"name":"user","type":"address","indexed":true,"internalType":"address"},{"name":"index","type":"uint256","indexed":false,"internalType":"uint256"}],"anonymous":false}],"bytecode":{"object":"0x608060405234801561000f575f80fd5b5061082a8061001d5f395ff3fe608060405234801561000f575f80fd5b506004361061003f575f3560e01c80634cc8221514610043578063b374012b14610058578063eb0773421461006b575b5f80fd5b61005661005136600461042b565b610094565b005b610056610066366004610442565b6101bd565b61007e6100793660046104ae565b6102d0565b60405161008b91906104db565b60405180910390f35b335f908152602081905260409020805482106100e75760405162461bcd60e51b815260206004820152600d60248201526c6f7574206f6620626f756e647360981b60448201526064015b60405180910390fd5b805481906100f790600190610580565b81548110610107576101076105a5565b905f5260205f209060020201818381548110610125576101256105a5565b5f91825260209091206002909102018061013f8382610651565b50600191820154910155805481908061015a5761015a610726565b5f828152602081205f199092019160028302019061017882826103d9565b505f60019190910155905560405182815233907fbe80a446a00b8794a7d05e8386915bdde937fe8b48da8d16175a5362b4c3f4f8906020015b60405180910390a25050565b80158015906101ce575061012c8111155b6102085760405162461bcd60e51b815260206004820152600b60248201526a312d33303020627974657360a81b60448201526064016100de565b335f908152602081815260409182902082516060601f860184900490930281018301845292830184815290929182919086908690819085018382808284375f92018290525093855250504260209384015250835460018101855593815220815191926002020190819061027b908261073a565b50602091820151600191820155335f818152928390526040909220547febfcf7c0a1b09f6499e519a8d8bb85ce33cd539ec6cbd964e116cd74943ead1a916102c291610580565b6040519081526020016101b1565b6001600160a01b0381165f90815260208181526040808320805482518185028101850190935280835260609492939192909184015b828210156103ce578382905f5260205f2090600202016040518060400160405290815f82018054610335906105b9565b80601f0160208091040260200160405190810160405280929190818152602001828054610361906105b9565b80156103ac5780601f10610383576101008083540402835291602001916103ac565b820191905f5260205f20905b81548152906001019060200180831161038f57829003601f168201915b5050505050815260200160018201548152505081526020019060010190610305565b505050509050919050565b5080546103e5906105b9565b5f825580601f106103f4575050565b601f0160209004905f5260205f20908101906104109190610413565b50565b5b80821115610427575f8155600101610414565b5090565b5f6020828403121561043b575f80fd5b5035919050565b5f8060208385031215610453575f80fd5b823567ffffffffffffffff8082111561046a575f80fd5b818501915085601f83011261047d575f80fd5b81358181111561048b575f80fd5b86602082850101111561049c575f80fd5b60209290920196919550909350505050565b5f602082840312156104be575f80fd5b81356001600160a01b03811681146104d4575f80fd5b9392505050565b5f60208083018184528085518083526040925060408601915060408160051b8701018488015f5b8381101561057257603f1989840301855281518051878552805180898701525f5b8181101561053f578281018b0151878201606001528a01610523565b505f868201606090810191909152928a01518a87015296890196601f01601f191690940101925090860190600101610502565b509098975050505050505050565b8181038181111561059f57634e487b7160e01b5f52601160045260245ffd5b92915050565b634e487b7160e01b5f52603260045260245ffd5b600181811c908216806105cd57607f821691505b6020821081036105eb57634e487b7160e01b5f52602260045260245ffd5b50919050565b634e487b7160e01b5f52604160045260245ffd5b601f82111561064c57805f5260205f20601f840160051c8101602085101561062a5750805b601f840160051c820191505b81811015610649575f8155600101610636565b50505b505050565b81810361065c575050565b61066682546105b9565b67ffffffffffffffff81111561067e5761067e6105f1565b6106928161068c84546105b9565b84610605565b5f601f8211600181146106c3575f83156106ac5750848201545b5f19600385901b1c1916600184901b178455610649565b5f8581526020808220868352908220601f198616925b838110156106f957828601548255600195860195909101906020016106d9565b508583101561071657818501545f19600388901b60f8161c191681555b5050505050600190811b01905550565b634e487b7160e01b5f52603160045260245ffd5b815167ffffffffffffffff811115610754576107546105f1565b6107628161068c84546105b9565b602080601f831160018114610795575f841561077e5750858301515b5f19600386901b1c1916600185901b1785556107ec565b5f85815260208120601f198616915b828110156107c3578886015182559484019460019091019084016107a4565b50858210156107e057878501515f19600388901b60f8161c191681555b505060018460011b0185555b50505050505056fea2646970667358221220b450da298a8262ba2d66eb4930dc974688c50a38608dd1d057e77a5e2ee2804564736f6c63430008180033","linkReferences":{}},"methodIdentifiers":{"getAll(address)":"eb077342","remove(uint256)":"4cc82215","store(bytes)":"b374012b"},"id":0}