{"abi":[{"type":"constructor","inputs":[],"stateMutability":"nonpayable"},{"type":"fallback","stateMutability":"payable"},{"type":"receive","stateMutability":"payable"},{"type":"function","name":"REPLAYABLE_NONCE_KEY","inputs":[],"outputs":[{"name":"","type":"uint256","internalType":"uint256"}],"stateMutability":"view"},{"type":"function","name":"addOwnerAddress","inputs":[{"name":"owner","type":"address","internalType":"address"}],"outputs":[],"stateMutability":"nonpayable"},{"type":"function","name":"addOwnerPublicKey","inputs":[{"name":"x","type":"bytes32","internalType":"bytes32"},{"name":"y","type":"bytes32","internalType":"bytes32"}],"outputs":[],"stateMutability":"nonpayable"},{"type":"function","name":"canSkipChainIdValidation","inputs":[{"name":"sel","type":"bytes4","internalType":"bytes4"}],"outputs":[{"name":"","type":"bool","internalType":"bool"}],"stateMutability":"pure"},{"type":"function","name":"domainSeparator","inputs":[],"outputs":[{"name":"","type":"bytes32","internalType":"bytes32"}],"stateMutability":"view"},{"type":"function","name":"eip712Domain","inputs":[],"outputs":[{"name":"fields","type":"bytes1","internalType":"bytes1"},{"name":"name","type":"string","internalType":"string"},{"name":"version","type":"string","internalType":"string"},{"name":"chainId","type":"uint256","internalType":"uint256"},{"name":"verifyingContract","type":"address","internalType":"address"},{"name":"salt","type":"bytes32","internalType":"bytes32"},{"name":"extensions","type":"uint256[]","internalType":"uint256[]"}],"stateMutability":"view"},{"type":"function","name":"entryPoint","inputs":[],"outputs":[{"name":"","type":"address","internalType":"address"}],"stateMutability":"view"},{"type":"function","name":"execute","inputs":[{"name":"target","type":"address","internalType":"address"},{"name":"value","type":"uint256","internalType":"uint256"},{"name":"data","type":"bytes","internalType":"bytes"}],"outputs":[],"stateMutability":"payable"},{"type":"function","name":"executeBatch","inputs":[{"name":"calls","type":"tuple[]","internalType":"struct CoinbaseSmartWallet.Call[]","components":[{"name":"target","type":"address","internalType":"address"},{"name":"value","type":"uint256","internalType":"uint256"},{"name":"data","type":"bytes","internalType":"bytes"}]}],"outputs":[],"stateMutability":"payable"},{"type":"function","name":"executeWithoutChainIdValidation","inputs":[{"name":"calls","type":"bytes[]","internalType":"bytes[]"}],"outputs":[],"stateMutability":"payable"},{"type":"function","name":"getUserOpHashWithoutChainId","inputs":[{"name":"userOp","type":"tuple","internalType":"struct UserOperation","components":[{"name":"sender","type":"address","internalType":"address"},{"name":"nonce","type":"uint256","internalType":"uint256"},{"name":"initCode","type":"bytes","internalType":"bytes"},{"name":"callData","type":"bytes","internalType":"bytes"},{"name":"callGasLimit","type":"uint256","internalType":"uint256"},{"name":"verificationGasLimit","type":"uint256","internalType":"uint256"},{"name":"preVerificationGas","type":"uint256","internalType":"uint256"},{"name":"maxFeePerGas","type":"uint256","internalType":"uint256"},{"name":"maxPriorityFeePerGas","type":"uint256","internalType":"uint256"},{"name":"paymasterAndData","type":"bytes","internalType":"bytes"},{"name":"signature","type":"bytes","internalType":"bytes"}]}],"outputs":[{"name":"","type":"bytes32","internalType":"bytes32"}],"stateMutability":"view"},{"type":"function","name":"initialize","inputs":[{"name":"owners","type":"bytes[]","internalType":"bytes[]"}],"outputs":[],"stateMutability":"payable"},{"type":"function","name":"isOwnerAddress","inputs":[{"name":"account","type":"address","internalType":"address"}],"outputs":[{"name":"","type":"bool","internalType":"bool"}],"stateMutability":"view"},{"type":"function","name":"isOwnerBytes","inputs":[{"name":"account","type":"bytes","internalType":"bytes"}],"outputs":[{"name":"","type":"bool","internalType":"bool"}],"stateMutability":"view"},{"type":"function","name":"isOwnerPublicKey","inputs":[{"name":"x","type":"bytes32","internalType":"bytes32"},{"name":"y","type":"bytes32","internalType":"bytes32"}],"outputs":[{"name":"","type":"bool","internalType":"bool"}],"stateMutability":"view"},{"type":"function","name":"isValidSignature","inputs":[{"name":"hash","type":"bytes32","internalType":"bytes32"},{"name":"signature","type":"bytes","internalType":"bytes"}],"outputs":[{"name":"result","type":"bytes4","internalType":"bytes4"}],"stateMutability":"view"},{"type":"function","name":"nextOwnerIndex","inputs":[],"outputs":[{"name":"","type":"uint256","internalType":"uint256"}],"stateMutability":"view"},{"type":"function","name":"ownerAtIndex","inputs":[{"name":"index","type":"uint256","internalType":"uint256"}],"outputs":[{"name":"","type":"bytes","internalType":"bytes"}],"stateMutability":"view"},{"type":"function","name":"ownerCount","inputs":[],"outputs":[{"name":"","type":"uint256","internalType":"uint256"}],"stateMutability":"view"},{"type":"function","name":"removeLastOwner","inputs":[{"name":"index","type":"uint256","internalType":"uint256"},{"name":"owner","type":"bytes","internalType":"bytes"}],"outputs":[],"stateMutability":"nonpayable"},{"type":"function","name":"removeOwnerAtIndex","inputs":[{"name":"index","type":"uint256","internalType":"uint256"},{"name":"owner","type":"bytes","internalType":"bytes"}],"outputs":[],"stateMutability":"nonpayable"},{"type":"function","name":"removedOwnersCount","inputs":[],"outputs":[{"name":"","type":"uint256","internalType":"uint256"}],"stateMutability":"view"},{"type":"function","name":"replaySafeHash","inputs":[{"name":"hash","type":"bytes32","internalType":"bytes32"}],"outputs":[{"name":"","type":"bytes32","internalType":"bytes32"}],"stateMutability":"view"},{"type":"function","name":"validateUserOp","inputs":[{"name":"userOp","type":"tuple","internalType":"struct UserOperation","components":[{"name":"sender","type":"address","internalType":"address"},{"name":"nonce","type":"uint256","internalType":"uint256"},{"name":"initCode","type":"bytes","internalType":"bytes"},{"name":"callData","type":"bytes","internalType":"bytes"},{"name":"callGasLimit","type":"uint256","internalType":"uint256"},{"name":"verificationGasLimit","type":"uint256","internalType":"uint256"},{"name":"preVerificationGas","type":"uint256","internalType":"uint256"},{"name":"maxFeePerGas","type":"uint256","internalType":"uint256"},{"name":"maxPriorityFeePerGas","type":"uint256","internalType":"uint256"},{"name":"paymasterAndData","type":"bytes","internalType":"bytes"},{"name":"signature","type":"bytes","internalType":"bytes"}]},{"name":"userOpHash","type":"bytes32","internalType":"bytes32"},{"name":"missingAccountFunds","type":"uint256","internalType":"uint256"}],"outputs":[{"name":"validationData","type":"uint256","internalType":"uint256"}],"stateMutability":"nonpayable"},{"type":"event","name":"AddOwner","inputs":[{"name":"index","type":"uint256","indexed":true,"internalType":"uint256"},{"name":"owner","type":"bytes","indexed":false,"internalType":"bytes"}],"anonymous":false},{"type":"event","name":"RemoveOwner","inputs":[{"name":"index","type":"uint256","indexed":true,"internalType":"uint256"},{"name":"owner","type":"bytes","indexed":false,"internalType":"bytes"}],"anonymous":false},{"type":"error","name":"AlreadyOwner","inputs":[{"name":"owner","type":"bytes","internalType":"bytes"}]},{"type":"error","name":"FnSelectorNotRecognized","inputs":[]},{"type":"error","name":"Initialized","inputs":[]},{"type":"error","name":"InvalidEthereumAddressOwner","inputs":[{"name":"owner","type":"bytes","internalType":"bytes"}]},{"type":"error","name":"InvalidNonceKey","inputs":[{"name":"key","type":"uint256","internalType":"uint256"}]},{"type":"error","name":"InvalidOwnerBytesLength","inputs":[{"name":"owner","type":"bytes","internalType":"bytes"}]},{"type":"error","name":"LastOwner","inputs":[]},{"type":"error","name":"NoOwnerAtIndex","inputs":[{"name":"index","type":"uint256","internalType":"uint256"}]},{"type":"error","name":"NotLastOwner","inputs":[{"name":"ownersRemaining","type":"uint256","internalType":"uint256"}]},{"type":"error","name":"SelectorNotAllowed","inputs":[{"name":"selector","type":"bytes4","internalType":"bytes4"}]},{"type":"error","name":"Unauthorized","inputs":[]},{"type":"error","name":"WrongOwnerAtIndex","inputs":[{"name":"index","type":"uint256","internalType":"uint256"},{"name":"expectedOwner","type":"bytes","internalType":"bytes"},{"name":"actualOwner","type":"bytes","internalType":"bytes"}]}],"bytecode":{"object":"0x608060405234801562000010575f80fd5b506040805160018082528183019092525f91816020015b60608152602001906001900390816200002757905050604080515f602082015291925001604051602081830303815290604052815f815181106200006f576200006f6200035b565b602090810291909101015262000085816200008c565b5062000580565b5f80516020620037ed83398151915280545f5b83518110156200021957838181518110620000be57620000be6200035b565b602002602001015151602014158015620000f65750838181518110620000e857620000e86200035b565b602002602001015151604014155b156200013e578381815181106200011157620001116200035b565b60200260200101516040516327755b9160e11b815260040162000135919062000393565b60405180910390fd5b8381815181106200015357620001536200035b565b60200260200101515160201480156200019b57506001600160a01b0380168482815181106200018657620001866200035b565b60200260200101516200019990620003c7565b115b15620001da57838181518110620001b657620001b66200035b565b602002602001015160405163bff1ac6560e01b815260040162000135919062000393565b62000210848281518110620001f357620001f36200035b565b602002602001015183806200020890620003ee565b94506200021f565b6001016200009f565b50905550565b6200022a826200030b565b156200024d578160405163468b12ad60e11b815260040162000135919062000393565b6040515f80516020620037ed833981519152906001907f97e2c6aad4ce5d562ebfaa00db6b9e0fb66ea5d8162ed5b243f51a2e03086f03906200029290869062000413565b9081526040805160209281900383019020805460ff1916931515939093179092555f8481526002840190915220620002cb8482620004b4565b50817f38109edc26e166b5579352ce56a50813177eb25208fd90d61f2f37838622022084604051620002fe919062000393565b60405180910390a2505050565b5f5f80516020620037ed833981519152600301826040516200032e919062000413565b9081526040519081900360200190205460ff1692915050565b634e487b7160e01b5f52604160045260245ffd5b634e487b7160e01b5f52603260045260245ffd5b5f5b838110156200038b57818101518382015260200162000371565b50505f910152565b602081525f8251806020840152620003b38160408501602087016200036f565b601f01601f19169190910160400192915050565b80516020808301519190811015620003e8575f198160200360031b1b821691505b50919050565b5f600182016200040c57634e487b7160e01b5f52601160045260245ffd5b5060010190565b5f8251620004268184602087016200036f565b9190910192915050565b600181811c908216806200044557607f821691505b602082108103620003e857634e487b7160e01b5f52602260045260245ffd5b601f821115620004af57805f5260205f20601f840160051c810160208510156200048b5750805b601f840160051c820191505b81811015620004ac575f815560010162000497565b50505b505050565b81516001600160401b03811115620004d057620004d062000347565b620004e881620004e1845462000430565b8462000464565b602080601f8311600181146200051e575f8415620005065750858301515b5f19600386901b1c1916600185901b17855562000578565b5f85815260208120601f198616915b828110156200054e578886015182559484019460019091019084016200052d565b50858210156200056c57878501515f19600388901b60f8161c191681555b505060018460011b0185555b505050505050565b61325f806200058e5f395ff3fe60806040526004361061014e575f3560e01c806384b0196e116100b5578063b0d691fe1161006e578063b0d691fe146103ea578063b61d27f614610418578063b81973671461042b578063ce1506be1461044a578063d948fd2e14610469578063f698da251461048957610155565b806384b0196e1461032557806388ce4c7c1461034c57806389625b57146103615780638ea69029146103805780639f9bcb34146103ac578063a2e1a8d8146103cb57610155565b80632c2abd1e116101075780632c2abd1e1461027b57806334fcd5be1461028e57806336d9cf9b146102a15780633a871cdd146102d45780634f6e7f22146102f35780636f2de70e1461031257610155565b8063066a1eb71461018e5780630db02622146101c25780630f0f3f24146101e45780631626ba7e146102055780631ca5393f1461023d57806329565e3b1461025c57610155565b3661015557005b5f3560e01c63bc197c81811463f23a6e6182141763150b7a028214171561018057806020526020603cf35b50633c10b94e5f526004601cfd5b348015610199575f80fd5b506101ad6101a836600461276f565b61049d565b60405190151581526020015b60405180910390f35b3480156101cd575f80fd5b506101d661050b565b6040519081526020016101b9565b3480156101ef575f80fd5b506102036101fe3660046127aa565b61054e565b005b348015610210575f80fd5b5061022461021f366004612807565b6105ab565b6040516001600160e01b031990911681526020016101b9565b348015610248575f80fd5b506101ad610257366004612932565b6105e4565b348015610267575f80fd5b5061020361027636600461276f565b61061d565b6102036102893660046129a3565b610646565b61020361029c3660046129a3565b61075a565b3480156102ac575f80fd5b507f97e2c6aad4ce5d562ebfaa00db6b9e0fb66ea5d8162ed5b243f51a2e03086f01546101d6565b3480156102df575f80fd5b506101d66102ee3660046129f8565b61081e565b3480156102fe575f80fd5b506101d661030d366004612a41565b610924565b6102036103203660046129a3565b610974565b348015610330575f80fd5b506103396109b3565b6040516101b99796959493929190612abf565b348015610357575f80fd5b506101d661210581565b34801561036c575f80fd5b5061020361037b366004612807565b6109d9565b34801561038b575f80fd5b5061039f61039a366004612b56565b610a14565b6040516101b99190612b6d565b3480156103b7575f80fd5b506101ad6103c6366004612b7f565b610ad2565b3480156103d6575f80fd5b506101ad6103e53660046127aa565b610b3d565b3480156103f5575f80fd5b50604051735ff137d4b0fdcd49dca30c7cf57e578a026d278981526020016101b9565b610203610426366004612ba6565b610b81565b348015610436575f80fd5b50610203610445366004612807565b610bea565b348015610455575f80fd5b506101d6610464366004612b56565b610c2d565b348015610474575f80fd5b505f8051602061320a833981519152546101d6565b348015610494575f80fd5b506101d6610c37565b60408051602081018490529081018290525f907f97e2c6aad4ce5d562ebfaa00db6b9e0fb66ea5d8162ed5b243f51a2e03086f039060600160408051601f19818403018152908290526104ef91612bfb565b9081526040519081900360200190205460ff1690505b92915050565b7f97e2c6aad4ce5d562ebfaa00db6b9e0fb66ea5d8162ed5b243f51a2e03086f01545f8051602061320a83398151915280545f9261054891612c2a565b91505090565b610556610cbb565b604080516001600160a01b03831660208201526105a891015b6040516020818303038152906040526105925f8051602061320a83398151915290565b8054905f61059f83612c3d565b91905055610ced565b50565b5f6105bf6105b885610c2d565b8484610dcd565b156105d25750630b135d3f60e11b6105dd565b506001600160e01b03195b9392505050565b5f5f8051602061320a833981519152600301826040516106049190612bfb565b9081526040519081900360200190205460ff1692915050565b610625610cbb565b60408051602081018490529081018290526106429060600161056f565b5050565b33735ff137d4b0fdcd49dca30c7cf57e578a026d278914610679576040516282b42960e81b815260040160405180910390fd5b5f5b81811015610755575f83838381811061069657610696612c55565b90506020028101906106a89190612c69565b6106b191612cab565b90506106bc81610ad2565b6106ea57604051631d8370a360e11b81526001600160e01b0319821660048201526024015b60405180910390fd5b61074c305f86868681811061070157610701612c55565b90506020028101906107139190612c69565b8080601f0160208091040260200160405190810160405280939291908181526020018383808284375f92019190915250610edb92505050565b5060010161067b565b505050565b33735ff137d4b0fdcd49dca30c7cf57e578a026d27891461077d5761077d610cbb565b5f5b818110156107555761081683838381811061079c5761079c612c55565b90506020028101906107ae9190612cdb565b6107bc9060208101906127aa565b8484848181106107ce576107ce612c55565b90506020028101906107e09190612cdb565b602001358585858181106107f6576107f6612c55565b90506020028101906108089190612cdb565b610713906040810190612c69565b60010161077f565b5f33735ff137d4b0fdcd49dca30c7cf57e578a026d278914610852576040516282b42960e81b815260040160405180910390fd5b81602085013560401c6316155e8f60e11b6108706060880188612c69565b61087991612cab565b6001600160e01b031916036108bd5761089186610924565b945061210581146108b857604051632ef3781360e01b8152600481018290526024016106e1565b6108e2565b61210581036108e257604051632ef3781360e01b8152600481018290526024016106e1565b6108f9856108f4610140890189612c69565b610dcd565b610904576001610906565b5f5b60ff16925050801561091c575f385f3884335af1505b509392505050565b5f61092e82610f4e565b604080516020810192909252735ff137d4b0fdcd49dca30c7cf57e578a026d2789908201526060015b604051602081830303815290604052805190602001209050919050565b5f8051602061320a83398151915254156109a1576040516302ed543d60e51b815260040160405180910390fd5b6106426109ae8284612cef565b610f66565b600f60f81b6060805f8080836109c76110ca565b97989097965046955030945091925090565b6109e1610cbb565b6109e961050b565b600103610a095760405163948bf89760e01b815260040160405180910390fd5b610755838383611111565b5f8181527f97e2c6aad4ce5d562ebfaa00db6b9e0fb66ea5d8162ed5b243f51a2e03086f0260205260409020805460609190610a4f90612d70565b80601f0160208091040260200160405190810160405280929190818152602001828054610a7b90612d70565b8015610ac65780601f10610a9d57610100808354040283529160200191610ac6565b820191905f5260205f20905b815481529060010190602001808311610aa957829003601f168201915b50505050509050919050565b5f6001600160e01b031982166329565e3b60e01b1480610b0257506001600160e01b031982166303c3cfc960e21b145b80610b1d57506001600160e01b031982166389625b5760e01b145b8061050557506001600160e01b0319821663b819736760e01b1492915050565b5f5f8051602061320a833981519152604080516001600160a01b0385166020820152600392909201910160408051601f198184030181529082905261060491612bfb565b33735ff137d4b0fdcd49dca30c7cf57e578a026d278914610ba457610ba4610cbb565b610be4848484848080601f0160208091040260200160405190810160405280939291908181526020018383808284375f92019190915250610edb92505050565b50505050565b610bf2610cbb565b5f610bfb61050b565b90506001811115610c2257604051631047e35560e31b8152600481018290526024016106e1565b610be4848484611111565b5f6105058261124e565b5f805f610c426110ca565b8151602080840191909120825182840120604080517f8b73c3c69bb8fe3d512ecc4cf759cc79239f7b179b0ffacaa9a75d522b39400f9481019490945283019190915260608201524660808201523060a0820152919350915060c001604051602081830303815290604052805190602001209250505090565b610cc433610b3d565b80610cce57503330145b15610cd557565b6040516282b42960e81b815260040160405180910390fd5b610cf6826105e4565b15610d16578160405163468b12ad60e11b81526004016106e19190612b6d565b6040515f8051602061320a833981519152906001907f97e2c6aad4ce5d562ebfaa00db6b9e0fb66ea5d8162ed5b243f51a2e03086f0390610d58908690612bfb565b9081526040805160209281900383019020805460ff1916931515939093179092555f8481526002840190915220610d8f8482612de6565b50817f38109edc26e166b5579352ce56a50813177eb25208fd90d61f2f37838622022084604051610dc09190612b6d565b60405180910390a2505050565b5f80610ddb83850185612ea5565b90505f610dea825f0151610a14565b90508051602003610e48576001600160a01b03610e0682612f2c565b1115610e27578060405163bff1ac6560e01b81526004016106e19190612b6d565b5f60208201519050610e3e81888560200151611283565b93505050506105dd565b8051604003610ec0575f8082806020019051810190610e679190612f4f565b915091505f8460200151806020019051810190610e849190612fb3565b9050610eb489604051602001610e9c91815260200190565b6040516020818303038152906040525f83868661135e565b955050505050506105dd565b806040516327755b9160e11b81526004016106e19190612b6d565b5f80846001600160a01b03168484604051610ef69190612bfb565b5f6040518083038185875af1925050503d805f8114610f30576040519150601f19603f3d011682016040523d82523d5f602084013e610f35565b606091505b509150915081610f4757805160208201fd5b5050505050565b5f610f58826116ad565b805190602001209050919050565b5f8051602061320a83398151915280545f5b83518110156110c457838181518110610f9357610f93612c55565b602002602001015151602014158015610fc75750838181518110610fb957610fb9612c55565b602002602001015151604014155b1561100057838181518110610fde57610fde612c55565b60200260200101516040516327755b9160e11b81526004016106e19190612b6d565b83818151811061101257611012612c55565b602002602001015151602014801561105457506001600160a01b03801684828151811061104157611041612c55565b602002602001015161105290612f2c565b115b1561108d5783818151811061106b5761106b612c55565b602002602001015160405163bff1ac6560e01b81526004016106e19190612b6d565b6110bc8482815181106110a2576110a2612c55565b602002602001015183806110b590612c3d565b9450610ced565b600101610f78565b50905550565b604080518082018252601581527410dbda5b98985cd94814db585c9d0815d85b1b195d605a1b602080830191909152825180840190935260018352603160f81b9083015291565b5f61111b84610a14565b905080515f036111415760405163340c473d60e11b8152600481018590526024016106e1565b8282604051611151929190613068565b6040518091039020818051906020012014611187578383838360405163781f2e3960e01b81526004016106e1949392919061309f565b6040515f8051602061320a833981519152907f97e2c6aad4ce5d562ebfaa00db6b9e0fb66ea5d8162ed5b243f51a2e03086f03906111c89086908690613068565b9081526040805160209281900383019020805460ff191690555f8781526002840190925281206111f791612725565b600181018054905f61120883612c3d565b9190505550847fcf95bbfe6f870f8cc40482dc3dccdafd268f0e9ce0a4f24ea1bea9be64e505ff858560405161123f9291906130d5565b60405180910390a25050505050565b5f611257610c37565b6112608361177d565b60405161190160f01b602082015260228101929092526042820152606201610957565b5f6001600160a01b038416156105dd57604051843b611318578251604081146112b457604181146112d5575061091c565b604084015160ff81901c601b016020526001600160ff1b03166060526112e8565b60608401515f1a60205260408401516060525b50835f5260208301516040526020600160805f60015afa5180861860601b3d119250505f6060528060405261091c565b631626ba7e60e01b808252846004830152602482016040815284516020018060448501828860045afa905060208260443d01868b5afa9151911691141695945050505050565b5f61137760025f805160206131aa8339815191526130e8565b8460a00151111561138957505f6116a4565b60608401515f906113ab9061139f816015613107565b602088015191906117b7565b90507fff1a2a9176d650e4a99dedb58f1793003935130579fe17b5a3f698ac5b00e6348180519060200120146113e4575f9150506116a4565b5f6113ee886117cc565b6040516020016113fe919061311a565b60405160208183030381529060405290505f6114358760400151835189604001516114299190613107565b60208a015191906117b7565b90508180519060200120818051906020012014611457575f93505050506116a4565b86518051600160f81b918291602090811061147457611474612c55565b0160200151166001600160f81b03191614611494575f93505050506116a4565b8780156114cc575086518051600160fa1b91829160209081106114b9576114b9612c55565b0160200151166001600160f81b03191614155b156114dc575f93505050506116a4565b5f600288602001516040516114f19190612bfb565b602060405180830381855afa15801561150c573d5f803e3d5ffd5b5050506040513d601f19601f8201168201806040525081019061152f919061315a565b90505f6002895f01518360405160200161154a929190613171565b60408051601f198184030181529082905261156491612bfb565b602060405180830381855afa15801561157f573d5f803e3d5ffd5b5050506040513d601f19601f820116820180604052508101906115a2919061315a565b6080808b015160a0808d015160408051602081018790529081019390935260608301529181018b90529081018990529091505f9060c00160405160208183030381529060405290505f806101006001600160a01b0316836040516116069190612bfb565b5f60405180830381855afa9150503d805f811461163e576040519150601f19603f3d011682016040523d82523d5f602084013e611643565b606091505b508051919350915015158280156116575750805b156116835781806020019051810190611670919061315a565b60011499505050505050505050506116a4565b611698858e608001518f60a001518f8f6117f1565b99505050505050505050505b95945050505050565b6060813560208301355f6116cc6116c76040870187612c69565b6118c7565b90505f6116df6116c76060880188612c69565b9050608086013560a087013560c088013560e08901356101008a01355f61170d6116c76101208e018e612c69565b604080516001600160a01b039c909c1660208d01528b81019a909a5260608b019890985250608089019590955260a088019390935260c087019190915260e08601526101008501526101208401526101408084019190915281518084039091018152610160909201905292915050565b604080517f9b493d222105fee7df163ab5d57f0bf1ffd2da04dd5fafbe10b54c41c1adc65760208201529081018290525f90606001610957565b60606117c48484846118d9565b949350505050565b6060610505826040518060600160405280604081526020016131ca604091395f61193e565b5f84158061180c57505f805160206131aa8339815191528510155b80611815575083155b8061182d57505f805160206131aa8339815191528410155b1561183957505f6116a4565b6118438383611ab8565b61184e57505f6116a4565b5f61185885611baf565b90505f5f805160206131aa83398151915282890990505f5f805160206131aa83398151915283890990505f61188f87878585611c1d565b90505f805160206131aa8339815191526118b68a5f805160206131aa833981519152612c2a565b8208159a9950505050505050505050565b5f604051828085833790209392505050565b606083518281116118e8578092505b8381116118f3578093505b50818310156105dd5750604051828203848401601f19601f830181165b8281015185820152810180611910575050508060208301015f81526020810160405250808252509392505050565b606083515f0361195c575060408051602081019091525f81526105dd565b5f8261198c576003855160046119729190613192565b61197d906002613107565b61198791906130e8565b6119b1565b60038551600261199c9190613107565b6119a691906130e8565b6119b1906004613192565b90505f816001600160401b038111156119cc576119cc61284e565b6040519080825280601f01601f1916602001820160405280156119f6576020820181803683370190505b509050600185016020820187885189016020810180515f82525b82841015611a6b576003840193508351603f8160121c168701518653600186019550603f81600c1c168701518653600186019550603f8160061c168701518653600186019550603f8116870151865350600185019450611a10565b905250508515611aac57600388510660018114611a8f5760028114611aa257611aaa565b603d6001830353603d6002830353611aaa565b603d60018303535b505b50909695505050505050565b5f600160601b63ffffffff60c01b031983101580611ae45750600160601b63ffffffff60c01b03198210155b80611af6575082158015611af6575081155b15611b0257505f610505565b5f600160601b63ffffffff60c01b031983840990505f600160601b63ffffffff60c01b0319807fffffffff00000001000000000000000000000000fffffffffffffffffffffffc8709600160601b63ffffffff60c01b031987600160601b63ffffffff60c01b0319898a0909089050600160601b63ffffffff60c01b03197f5ac635d8aa3a93e7b3ebbd55769886bc651d06b0cc53b0f63bce3c3e27d2604b820891909114949350505050565b5f60405160208152602080820152602060408201528260608201527fffffffff00000000ffffffffffffffffbce6faada7179e84f3b9cac2fc63254f60808201525f805160206131aa83398151915260a082015260208160c08360055f19fa611c16575f80fd5b5192915050565b5f80808060ff818088158015611c31575087155b15611c44575f96505050505050506117c4565b611c907f6b17d1f2e12c4247f8bce6e563a440f277037d812deb33a0f4a13945d898c2967f4fe342e2fe1a7f9b8ee7eb4a7c0f9e162bce33576b315ececbb6406837bf51f58d8d6122fb565b909250905081158015611ca1575080155b15611cea575f805160206131aa833981519152885f805160206131aa833981519152038a0898505f975088158015611cd7575087155b15611cea575f96505050505050506117c4565b600189841c16600189851c1660011b015b80611d1d5760018403935060018a851c1660018a861c1660011b019050611cfb565b50600189841c16600189851c1660011b01955060018603611d7f577f6b17d1f2e12c4247f8bce6e563a440f277037d812deb33a0f4a13945d898c29696507f4fe342e2fe1a7f9b8ee7eb4a7c0f9e162bce33576b315ececbb6406837bf51f593505b60028603611d8e578a96508993505b60038603611d9d578196508093505b60018303925060019550600194505b825f19111561228057600160601b63ffffffff60c01b031984600209600160601b63ffffffff60c01b0319818209600160601b63ffffffff60c01b0319818a09600160601b63ffffffff60c01b03198284099250600160601b63ffffffff60c01b031980600160601b63ffffffff60c01b03198b8d08600160601b63ffffffff60c01b03198c600160601b63ffffffff60c01b0319038e0809600309600160601b63ffffffff60c01b03198985099850600160601b63ffffffff60c01b03198a84099950600160601b63ffffffff60c01b031980836002600160601b0363ffffffff60c01b031909600160601b63ffffffff60c01b0319838409089a50600160601b63ffffffff60c01b03198083600160601b63ffffffff60c01b0319038d0882099250600160601b63ffffffff60c01b031983600160601b63ffffffff60c01b03198a870908975060018d881c1660018d891c1660011b01905080611f285787600160601b63ffffffff60c01b031903975050505050612275565b60018103611f77577f6b17d1f2e12c4247f8bce6e563a440f277037d812deb33a0f4a13945d898c29693507f4fe342e2fe1a7f9b8ee7eb4a7c0f9e162bce33576b315ececbb6406837bf51f592505b60028103611f86578e93508d92505b60038103611f95578593508492505b89611fae57509198506001975087965094506122759050565b600160601b63ffffffff60c01b031988600160601b63ffffffff60c01b03198b860908600160601b63ffffffff60c01b03198c600160601b63ffffffff60c01b031903600160601b63ffffffff60c01b03198d880908935080612167578361216757600160601b63ffffffff60c01b0319896002600160601b0363ffffffff60c01b0319099450600160601b63ffffffff60c01b03198586099350600160601b63ffffffff60c01b0319848d099250600160601b63ffffffff60c01b03198486099450600160601b63ffffffff60c01b0319808c600160601b63ffffffff60c01b0319038e08600160601b63ffffffff60c01b03198d8f08099050600160601b63ffffffff60c01b0319816003099150600160601b63ffffffff60c01b03198a86099950600160601b63ffffffff60c01b03198b85099a50600160601b63ffffffff60c01b031980846002600160601b0363ffffffff60c01b031909600160601b63ffffffff60c01b0319848509089b50600160601b63ffffffff60c01b0319808d600160601b63ffffffff60c01b031903850883099350600160601b63ffffffff60c01b0319808a8709850898505050505050612275565b600160601b63ffffffff60c01b03198485099150600160601b63ffffffff60c01b0319848309600160601b63ffffffff60c01b0319838d099b50600160601b63ffffffff60c01b0319818c099a50600160601b63ffffffff60c01b0319838e09600160601b63ffffffff60c01b031980826002600160601b0363ffffffff60c01b031909600160601b63ffffffff60c01b031984600160601b63ffffffff60c01b031903600160601b63ffffffff60c01b031987880908089350600160601b63ffffffff60c01b031980838d09600160601b63ffffffff60c01b031985600160601b63ffffffff60c01b031988600160601b63ffffffff60c01b031903860809089a50505050809a50505050505b600183039250611dac565b60405186606082015260208152602080820152602060408201526002600160601b0363ffffffff60c01b03196080820152600160601b63ffffffff60c01b031960a082015260208160c08360055f19fa6122d8575f80fd5b600160601b63ffffffff60c01b0319815189099c9b505050505050505050505050565b5f8080808661231157858593509350505061237f565b8461232357878793509350505061237f565b858814801561233157508487145b15612352576123438888600180612388565b929a509098509250905061236c565b61236188886001808a8a6124e1565b929a50909850925090505b61237888888484612662565b9350935050505b94509492505050565b5f805f80600160601b63ffffffff60c01b0319876002099350600160601b63ffffffff60c01b03198485099150600160601b63ffffffff60c01b03198289099050600160601b63ffffffff60c01b03198285099250600160601b63ffffffff60c01b03198683099150600160601b63ffffffff60c01b031980600160601b63ffffffff60c01b0319888b08600160601b63ffffffff60c01b031989600160601b63ffffffff60c01b0319038c08096003099550600160601b63ffffffff60c01b031980826002600160601b0363ffffffff60c01b031909600160601b63ffffffff60c01b0319888909089350600160601b63ffffffff60c01b03198085600160601b63ffffffff60c01b031903830887099750600160601b63ffffffff60c01b03198584099050600160601b63ffffffff60c01b031980888509600160601b63ffffffff60c01b03190389089250945094509450949050565b5f805f80885f036124fd57508492508391506001905080612655565b600160601b63ffffffff60c01b0319988903988981898809089450600160601b63ffffffff60c01b03198a600160601b63ffffffff60c01b031903600160601b63ffffffff60c01b03198a8909089550600160601b63ffffffff60c01b03198687099350600160601b63ffffffff60c01b03198685099250600160601b63ffffffff60c01b03198489099150600160601b63ffffffff60c01b03198388099050600160601b63ffffffff60c01b0319848b099750600160601b63ffffffff60c01b031980896002600160601b0363ffffffff60c01b031909600160601b63ffffffff60c01b031985600160601b63ffffffff60c01b031903600160601b63ffffffff60c01b0319898a0908089350600160601b63ffffffff60c01b031980848b09600160601b63ffffffff60c01b031987600160601b63ffffffff60c01b031988600160601b63ffffffff60c01b0319038d08090892505b9650965096509692505050565b5f805f61266e846126cc565b9050600160601b63ffffffff60c01b031981870991505f600160601b63ffffffff60c01b03198287099050600160601b63ffffffff60c01b03198182099150600160601b63ffffffff60c01b03198289099350505094509492505050565b5f60405160208152602080820152602060408201528260608201526002600160601b0363ffffffff60c01b03196080820152600160601b63ffffffff60c01b031960a082015260208160c08360055f19fa611c16575f80fd5b50805461273190612d70565b5f825580601f10612740575050565b601f0160209004905f5260205f20908101906105a891905b8082111561276b575f8155600101612758565b5090565b5f8060408385031215612780575f80fd5b50508035926020909101359150565b80356001600160a01b03811681146127a5575f80fd5b919050565b5f602082840312156127ba575f80fd5b6105dd8261278f565b5f8083601f8401126127d3575f80fd5b5081356001600160401b038111156127e9575f80fd5b602083019150836020828501011115612800575f80fd5b9250929050565b5f805f60408486031215612819575f80fd5b8335925060208401356001600160401b03811115612835575f80fd5b612841868287016127c3565b9497909650939450505050565b634e487b7160e01b5f52604160045260245ffd5b60405160c081016001600160401b03811182821017156128845761288461284e565b60405290565b604051601f8201601f191681016001600160401b03811182821017156128b2576128b261284e565b604052919050565b5f6001600160401b038211156128d2576128d261284e565b50601f01601f191660200190565b5f82601f8301126128ef575f80fd5b81356129026128fd826128ba565b61288a565b818152846020838601011115612916575f80fd5b816020850160208301375f918101602001919091529392505050565b5f60208284031215612942575f80fd5b81356001600160401b03811115612957575f80fd5b6117c4848285016128e0565b5f8083601f840112612973575f80fd5b5081356001600160401b03811115612989575f80fd5b6020830191508360208260051b8501011115612800575f80fd5b5f80602083850312156129b4575f80fd5b82356001600160401b038111156129c9575f80fd5b6129d585828601612963565b90969095509350505050565b5f61016082840312156129f2575f80fd5b50919050565b5f805f60608486031215612a0a575f80fd5b83356001600160401b03811115612a1f575f80fd5b612a2b868287016129e1565b9660208601359650604090950135949350505050565b5f60208284031215612a51575f80fd5b81356001600160401b03811115612a66575f80fd5b6117c4848285016129e1565b5f5b83811015612a8c578181015183820152602001612a74565b50505f910152565b5f8151808452612aab816020860160208601612a72565b601f01601f19169290920160200192915050565b60ff60f81b881681525f602060e06020840152612adf60e084018a612a94565b8381036040850152612af1818a612a94565b606085018990526001600160a01b038816608086015260a0850187905284810360c0860152855180825260208088019350909101905f5b81811015612b4457835183529284019291840191600101612b28565b50909c9b505050505050505050505050565b5f60208284031215612b66575f80fd5b5035919050565b602081525f6105dd6020830184612a94565b5f60208284031215612b8f575f80fd5b81356001600160e01b0319811681146105dd575f80fd5b5f805f8060608587031215612bb9575f80fd5b612bc28561278f565b93506020850135925060408501356001600160401b03811115612be3575f80fd5b612bef878288016127c3565b95989497509550505050565b5f8251612c0c818460208701612a72565b9190910192915050565b634e487b7160e01b5f52601160045260245ffd5b8181038181111561050557610505612c16565b5f60018201612c4e57612c4e612c16565b5060010190565b634e487b7160e01b5f52603260045260245ffd5b5f808335601e19843603018112612c7e575f80fd5b8301803591506001600160401b03821115612c97575f80fd5b602001915036819003821315612800575f80fd5b6001600160e01b03198135818116916004851015612cd35780818660040360031b1b83161692505b505092915050565b5f8235605e19833603018112612c0c575f80fd5b5f6001600160401b0380841115612d0857612d0861284e565b8360051b6020612d1a6020830161288a565b86815291850191602081019036841115612d32575f80fd5b865b84811015612d6457803586811115612d4a575f80fd5b612d5636828b016128e0565b845250918301918301612d34565b50979650505050505050565b600181811c90821680612d8457607f821691505b6020821081036129f257634e487b7160e01b5f52602260045260245ffd5b601f82111561075557805f5260205f20601f840160051c81016020851015612dc75750805b601f840160051c820191505b81811015610f47575f8155600101612dd3565b81516001600160401b03811115612dff57612dff61284e565b612e1381612e0d8454612d70565b84612da2565b602080601f831160018114612e46575f8415612e2f5750858301515b5f19600386901b1c1916600185901b178555612e9d565b5f85815260208120601f198616915b82811015612e7457888601518255948401946001909101908401612e55565b5085821015612e9157878501515f19600388901b60f8161c191681555b505060018460011b0185555b505050505050565b5f60208284031215612eb5575f80fd5b81356001600160401b0380821115612ecb575f80fd5b9083019060408286031215612ede575f80fd5b604051604081018181108382111715612ef957612ef961284e565b60405282358152602083013582811115612f11575f80fd5b612f1d878286016128e0565b60208301525095945050505050565b805160208083015191908110156129f2575f1960209190910360031b1b16919050565b5f8060408385031215612f60575f80fd5b505080516020909101519092909150565b5f82601f830112612f80575f80fd5b8151612f8e6128fd826128ba565b818152846020838601011115612fa2575f80fd5b6117c4826020830160208701612a72565b5f60208284031215612fc3575f80fd5b81516001600160401b0380821115612fd9575f80fd5b9083019060c08286031215612fec575f80fd5b612ff4612862565b825182811115613002575f80fd5b61300e87828601612f71565b825250602083015182811115613022575f80fd5b61302e87828601612f71565b60208301525060408301516040820152606083015160608201526080830151608082015260a083015160a082015280935050505092915050565b818382375f9101908152919050565b81835281816020850137505f828201602090810191909152601f909101601f19169091010190565b848152606060208201525f6130b8606083018587613077565b82810360408401526130ca8185612a94565b979650505050505050565b602081525f6117c4602083018486613077565b5f8261310257634e487b7160e01b5f52601260045260245ffd5b500490565b8082018082111561050557610505612c16565b6c1131b430b63632b733b2911d1160991b815281515f9061314281600d850160208701612a72565b601160f91b600d939091019283015250600e01919050565b5f6020828403121561316a575f80fd5b5051919050565b5f8351613182818460208801612a72565b9190910191825250602001919050565b808202811582820484141761050557610505612c1656feffffffff00000000ffffffffffffffffbce6faada7179e84f3b9cac2fc6325514142434445464748494a4b4c4d4e4f505152535455565758595a6162636465666768696a6b6c6d6e6f707172737475767778797a303132333435363738392d5f97e2c6aad4ce5d562ebfaa00db6b9e0fb66ea5d8162ed5b243f51a2e03086f00a26469706673582212207ed2197f7d56b48c551d9f188c6153fc107d751cd5f0efc3b2d96bca843d3fe764736f6c6343000818003397e2c6aad4ce5d562ebfaa00db6b9e0fb66ea5d8162ed5b243f51a2e03086f00","linkReferences":{}},"methodIdentifiers":{"REPLAYABLE_NONCE_KEY()":"88ce4c7c","addOwnerAddress(address)":"0f0f3f24","addOwnerPublicKey(bytes32,bytes32)":"29565e3b","canSkipChainIdValidation(bytes4)":"9f9bcb34","domainSeparator()":"f698da25","eip712Domain()":"84b0196e","entryPoint()":"b0d691fe","execute(address,uint256,bytes)":"b61d27f6","executeBatch((address,uint256,bytes)[])":"34fcd5be","executeWithoutChainIdValidation(bytes[])":"2c2abd1e","getUserOpHashWithoutChainId((address,uint256,bytes,bytes,uint256,uint256,uint256,uint256,uint256,bytes,bytes))":"4f6e7f22","initialize(bytes[])":"6f2de70e","isOwnerAddress(address)":"a2e1a8d8","isOwnerBytes(bytes)":"1ca5393f","isOwnerPublicKey(bytes32,bytes32)":"066a1eb7","isValidSignature(bytes32,bytes)":"1626ba7e","nextOwnerIndex()":"d948fd2e","ownerAtIndex(uint256)":"8ea69029","ownerCount()":"0db02622","removeLastOwner(uint256,bytes)":"b8197367","removeOwnerAtIndex(uint256,bytes)":"89625b57","removedOwnersCount()":"36d9cf9b","replaySafeHash(bytes32)":"ce1506be","validateUserOp((address,uint256,bytes,bytes,uint256,uint256,uint256,uint256,uint256,bytes,bytes),bytes32,uint256)":"3a871cdd"},"id":2}