{"abi":[{"type":"function","name":"accountOf","inputs":[{"name":"","type":"bytes32","internalType":"bytes32"}],"outputs":[{"name":"","type":"address","internalType":"address"}],"stateMutability":"view"},{"type":"function","name":"link","inputs":[{"name":"credentialIdHash","type":"bytes32","internalType":"bytes32"}],"outputs":[],"stateMutability":"nonpayable"},{"type":"event","name":"Linked","inputs":[{"name":"credentialIdHash","type":"bytes32","indexed":true,"internalType":"bytes32"},{"name":"account","type":"address","indexed":true,"internalType":"address"}],"anonymous":false}],"bytecode":{"object":"0x608060405234801561000f575f80fd5b506101858061001d5f395ff3fe608060405234801561000f575f80fd5b5060043610610034575f3560e01c80630b61a88714610038578063916164121461007c575b5f80fd5b610060610046366004610138565b5f602081905290815260409020546001600160a01b031681565b6040516001600160a01b03909116815260200160405180910390f35b61008f61008a366004610138565b610091565b005b5f818152602081905260409020546001600160a01b0316156100ea5760405162461bcd60e51b815260206004820152600e60248201526d185b1c9958591e481b1a5b9ad95960921b604482015260640160405180910390fd5b5f8181526020819052604080822080546001600160a01b031916339081179091559051909183917fd43d353a108d85015ac24147275f0b1ffe2af030894a0bfdcb321c677ef2b8719190a350565b5f60208284031215610148575f80fd5b503591905056fea264697066735822122036d15d7087928546b2824131bb01ce61b9180564209e041789b80f1e47be5f7964736f6c63430008180033","linkReferences":{}},"methodIdentifiers":{"accountOf(bytes32)":"0b61a887","link(bytes32)":"91616412"},"id":1}