{"abi":[{"type":"constructor","inputs":[{"name":"implementation_","type":"address","internalType":"address"}],"stateMutability":"payable"},{"type":"function","name":"createAccount","inputs":[{"name":"owners","type":"bytes[]","internalType":"bytes[]"},{"name":"nonce","type":"uint256","internalType":"uint256"}],"outputs":[{"name":"account","type":"address","internalType":"contract CoinbaseSmartWallet"}],"stateMutability":"payable"},{"type":"function","name":"getAddress","inputs":[{"name":"owners","type":"bytes[]","internalType":"bytes[]"},{"name":"nonce","type":"uint256","internalType":"uint256"}],"outputs":[{"name":"","type":"address","internalType":"address"}],"stateMutability":"view"},{"type":"function","name":"implementation","inputs":[],"outputs":[{"name":"","type":"address","internalType":"address"}],"stateMutability":"view"},{"type":"event","name":"AccountCreated","inputs":[{"name":"account","type":"address","indexed":true,"internalType":"address"},{"name":"owners","type":"bytes[]","indexed":false,"internalType":"bytes[]"},{"name":"nonce","type":"uint256","indexed":false,"internalType":"uint256"}],"anonymous":false},{"type":"error","name":"ImplementationUndeployed","inputs":[]},{"type":"error","name":"OwnerRequired","inputs":[]}],"bytecode":{"object":"0x60a06040526040516105e43803806105e48339810160408190526100229161005d565b806001600160a01b03163b5f0361004c5760405163870dfeb760e01b815260040160405180910390fd5b6001600160a01b031660805261008a565b5f6020828403121561006d575f80fd5b81516001600160a01b0381168114610083575f80fd5b9392505050565b60805161052f6100b55f395f818160960152818160be0152818161012b015261016a015261052f5ff3fe608060405260043610610033575f3560e01c8063250b1b41146100375780633ffba36f146100725780635c60da1b14610085575b5f80fd5b348015610042575f80fd5b50610056610051366004610395565b6100b8565b6040516001600160a01b03909116815260200160405180910390f35b610056610080366004610395565b6100f6565b348015610090575f80fd5b506100567f000000000000000000000000000000000000000000000000000000000000000081565b5f6100ee7f00000000000000000000000000000000000000000000000000000000000000006100e8868686610282565b306102b7565b949350505050565b5f82810361011757604051633c776be160e01b815260040160405180910390fd5b5f610123858585610282565b90505f6101517f000000000000000000000000000000000000000000000000000000000000000083306102b7565b9050806001600160a01b03163b5f0361023c575f61018f7f000000000000000000000000000000000000000000000000000000000000000084610310565b9050809350836001600160a01b0316636f2de70e3489896040518463ffffffff1660e01b81526004016101c39291906104c3565b5f604051808303818588803b1580156101da575f80fd5b505af11580156101ec573d5f803e3d5ffd5b5050505050806001600160a01b03167ff8e246d8281c915feaf5c1ffd75d9a144f6dbdbbf545e286088661b19d8028f488888860405161022e939291906104d6565b60405180910390a250610279565b9150813415610279576040516001600160a01b038216903480156108fc02915f818181858888f19350505050158015610277573d5f803e3d5ffd5b505b50509392505050565b5f838383604051602001610298939291906104d6565b6040516020818303038152906040528051906020012090509392505050565b5f806102fa855f6c5af43d3d93803e602a57fd5bf36021528160145273602c3d8160093d39f33d3d3d3d363d3d37363d735f526035600c2090505f602152919050565b9050610307818585610323565b95945050505050565b5f61031c5f8484610342565b9392505050565b5f60ff5f5350603592835260601b60015260155260555f908120915290565b5f6c5af43d3d93803e602a57fd5bf36021528260145273602c3d8160093d39f33d3d3d3d363d3d37363d735f52816035600c86f590508061038a5763301164255f526004601cfd5b5f6021529392505050565b5f805f604084860312156103a7575f80fd5b833567ffffffffffffffff808211156103be575f80fd5b818601915086601f8301126103d1575f80fd5b8135818111156103df575f80fd5b8760208260051b85010111156103f3575f80fd5b6020928301989097509590910135949350505050565b81835281816020850137505f828201602090810191909152601f909101601f19169091010190565b5f838385526020808601955060208560051b830101845f5b878110156104b657848303601f19018952813536889003601e1901811261046e575f80fd5b8701848101903567ffffffffffffffff811115610489575f80fd5b803603821315610497575f80fd5b6104a2858284610409565b9a86019a9450505090830190600101610449565b5090979650505050505050565b602081525f6100ee602083018486610431565b604081525f6104e9604083018587610431565b905082602083015294935050505056fea26469706673582212203fc002754fe8a81d532912f45c7880a667b89810e1c50d500a914576115721f064736f6c63430008180033","linkReferences":{}},"methodIdentifiers":{"createAccount(bytes[],uint256)":"3ffba36f","getAddress(bytes[],uint256)":"250b1b41","implementation()":"5c60da1b"},"id":3}